{
  "_format": "hh-sol-artifact-1",
  "contractName": "WavePortal",
  "sourceName": "contracts/WavePortal.sol",
  "abi": [
    {
      "inputs": [],
      "stateMutability": "payable",
      "type": "constructor"
    },
    {
      "anonymous": false,
      "inputs": [
        {
          "indexed": true,
          "internalType": "address",
          "name": "from",
          "type": "address"
        },
        {
          "indexed": false,
          "internalType": "uint256",
          "name": "timestamp",
          "type": "uint256"
        },
        {
          "indexed": false,
          "internalType": "string",
          "name": "message",
          "type": "string"
        }
      ],
      "name": "NewWave",
      "type": "event"
    },
    {
      "inputs": [],
      "name": "getAllWaves",
      "outputs": [
        {
          "components": [
            {
              "internalType": "address",
              "name": "waver",
              "type": "address"
            },
            {
              "internalType": "uint256",
              "name": "timestamp",
              "type": "uint256"
            },
            {
              "internalType": "string",
              "name": "message",
              "type": "string"
            }
          ],
          "internalType": "struct WavePortal.Wave[]",
          "name": "",
          "type": "tuple[]"
        }
      ],
      "stateMutability": "view",
      "type": "function"
    },
    {
      "inputs": [],
      "name": "getTotalWaves",
      "outputs": [
        {
          "internalType": "uint256",
          "name": "",
          "type": "uint256"
        }
      ],
      "stateMutability": "view",
      "type": "function"
    },
    {
      "inputs": [
        {
          "internalType": "address",
          "name": "",
          "type": "address"
        }
      ],
      "name": "lastWaved",
      "outputs": [
        {
          "internalType": "uint256",
          "name": "",
          "type": "uint256"
        }
      ],
      "stateMutability": "view",
      "type": "function"
    },
    {
      "inputs": [
        {
          "internalType": "string",
          "name": "_message",
          "type": "string"
        }
      ],
      "name": "wave",
      "outputs": [],
      "stateMutability": "nonpayable",
      "type": "function"
    }
  ],
  "bytecode": "0x6080604052620000336040518060600160405280602a815260200162001577602a91396200005b60201b620006891760201c565b60644442620000439190620001a8565b6200004f919062000245565b600181905550620002ec565b620000fb8160405160240162000072919062000168565b6040516020818303038152906040527f41304fac000000000000000000000000000000000000000000000000000000007bffffffffffffffffffffffffffffffffffffffffffffffffffffffff19166020820180517bffffffffffffffffffffffffffffffffffffffffffffffffffffffff8381831617835250505050620000fe60201b60201c565b50565b60008151905060006a636f6e736f6c652e6c6f679050602083016000808483855afa5050505050565b600062000134826200018c565b62000140818562000197565b9350620001528185602086016200020f565b6200015d81620002db565b840191505092915050565b6000602082019050818103600083015262000184818462000127565b905092915050565b600081519050919050565b600082825260208201905092915050565b6000620001b58262000205565b9150620001c28362000205565b9250827fffffffffffffffffffffffffffffffffffffffffffffffffffffffffffffffff03821115620001fa57620001f96200027d565b5b828201905092915050565b6000819050919050565b60005b838110156200022f57808201518184015260208101905062000212565b838111156200023f576000848401525b50505050565b6000620002528262000205565b91506200025f8362000205565b925082620002725762000271620002ac565b5b828206905092915050565b7f4e487b7100000000000000000000000000000000000000000000000000000000600052601160045260246000fd5b7f4e487b7100000000000000000000000000000000000000000000000000000000600052601260045260246000fd5b6000601f19601f8301169050919050565b61127b80620002fc6000396000f3fe608060405234801561001057600080fd5b506004361061004c5760003560e01c8063449d46c0146100515780639a2cdc081461006d578063bd43a9081461008b578063f4920770146100a9575b600080fd5b61006b60048036038101906100669190610a6b565b6100d9565b005b6100756104d5565b6040516100829190610e1d565b60405180910390f35b610093610520565b6040516100a09190610cd4565b60405180910390f35b6100c360048036038101906100be9190610a42565b610671565b6040516100d09190610e1d565b60405180910390f35b42610384600360003373ffffffffffffffffffffffffffffffffffffffff1673ffffffffffffffffffffffffffffffffffffffff168152602001908152602001600020546101279190610f2f565b10610167576040517f08c379a000000000000000000000000000000000000000000000000000000000815260040161015e90610dfd565b60405180910390fd5b42600360003373ffffffffffffffffffffffffffffffffffffffff1673ffffffffffffffffffffffffffffffffffffffff1681526020019081526020016000208190555060016000808282546101bd9190610f2f565b925050819055506102046040518060400160405280601d81526020017f2573206861732077617665642077697468206d6573736167653a2025730000008152503383610722565b600260405180606001604052803373ffffffffffffffffffffffffffffffffffffffff16815260200142815260200183815250908060018154018082558091505060019003906000526020600020906003020160009091909190915060008201518160000160006101000a81548173ffffffffffffffffffffffffffffffffffffffff021916908373ffffffffffffffffffffffffffffffffffffffff1602179055506020820151816001015560408201518160020190805190602001906102cd929190610922565b505050606460015444426102e19190610f2f565b6102eb9190610f2f565b6102f59190611066565b60018190555061033c6040518060400160405280601681526020017f52616e646f6d20232067656e6572617465643a202564000000000000000000008152506001546107c1565b603260015411610482576103856040518060400160405280600781526020017f257320776f6e21000000000000000000000000000000000000000000000000008152503361085d565b6000655af3107a40009050478111156103d3576040517f08c379a00000000000000000000000000000000000000000000000000000000081526004016103ca90610dbd565b60405180910390fd5b60003373ffffffffffffffffffffffffffffffffffffffff16826040516103f990610cbf565b60006040518083038185875af1925050503d8060008114610436576040519150601f19603f3d011682016040523d82523d6000602084013e61043b565b606091505b505090508061047f576040517f08c379a000000000000000000000000000000000000000000000000000000000815260040161047690610ddd565b60405180910390fd5b50505b3373ffffffffffffffffffffffffffffffffffffffff167f5f7e16dc676677766a70e9c5628aa6c54ddb8b6e5188e2ae1e1f17f1ffbea71642836040516104ca929190610e38565b60405180910390a250565b60006105186040518060400160405280601681526020017f5765206861766520256420746f74616c207761766573000000000000000000008152506000546107c1565b600054905090565b60606002805480602002602001604051908101604052809291908181526020016000905b8282101561066857838290600052602060002090600302016040518060600160405290816000820160009054906101000a900473ffffffffffffffffffffffffffffffffffffffff1673ffffffffffffffffffffffffffffffffffffffff1673ffffffffffffffffffffffffffffffffffffffff168152602001600182015481526020016002820180546105d790611003565b80601f016020809104026020016040519081016040528092919081815260200182805461060390611003565b80156106505780601f1061062557610100808354040283529160200191610650565b820191906000526020600020905b81548152906001019060200180831161063357829003601f168201915b50505050508152505081526020019060010190610544565b50505050905090565b60036020528060005260406000206000915090505481565b61071f8160405160240161069d9190610cf6565b6040516020818303038152906040527f41304fac000000000000000000000000000000000000000000000000000000007bffffffffffffffffffffffffffffffffffffffffffffffffffffffff19166020820180517bffffffffffffffffffffffffffffffffffffffffffffffffffffffff83818316178352505050506108f9565b50565b6107bc83838360405160240161073a93929190610d48565b6040516020818303038152906040527fe0e9ad4f000000000000000000000000000000000000000000000000000000007bffffffffffffffffffffffffffffffffffffffffffffffffffffffff19166020820180517bffffffffffffffffffffffffffffffffffffffffffffffffffffffff83818316178352505050506108f9565b505050565b61085982826040516024016107d7929190610d8d565b6040516020818303038152906040527f9710a9d0000000000000000000000000000000000000000000000000000000007bffffffffffffffffffffffffffffffffffffffffffffffffffffffff19166020820180517bffffffffffffffffffffffffffffffffffffffffffffffffffffffff83818316178352505050506108f9565b5050565b6108f58282604051602401610873929190610d18565b6040516020818303038152906040527f319af333000000000000000000000000000000000000000000000000000000007bffffffffffffffffffffffffffffffffffffffffffffffffffffffff19166020820180517bffffffffffffffffffffffffffffffffffffffffffffffffffffffff83818316178352505050506108f9565b5050565b60008151905060006a636f6e736f6c652e6c6f679050602083016000808483855afa5050505050565b82805461092e90611003565b90600052602060002090601f0160209004810192826109505760008555610997565b82601f1061096957805160ff1916838001178555610997565b82800160010185558215610997579182015b8281111561099657825182559160200191906001019061097b565b5b5090506109a491906109a8565b5090565b5b808211156109c15760008160009055506001016109a9565b5090565b60006109d86109d384610e8d565b610e68565b9050828152602081018484840111156109f057600080fd5b6109fb848285610fc1565b509392505050565b600081359050610a128161122e565b92915050565b600082601f830112610a2957600080fd5b8135610a398482602086016109c5565b91505092915050565b600060208284031215610a5457600080fd5b6000610a6284828501610a03565b91505092915050565b600060208284031215610a7d57600080fd5b600082013567ffffffffffffffff811115610a9757600080fd5b610aa384828501610a18565b91505092915050565b6000610ab88383610c51565b905092915050565b610ac981610f85565b82525050565b610ad881610f85565b82525050565b6000610ae982610ece565b610af38185610ef1565b935083602082028501610b0585610ebe565b8060005b85811015610b415784840389528151610b228582610aac565b9450610b2d83610ee4565b925060208a01995050600181019050610b09565b50829750879550505050505092915050565b6000610b5e82610ed9565b610b688185610f0d565b9350610b78818560208601610fd0565b610b8181611153565b840191505092915050565b6000610b9782610ed9565b610ba18185610f1e565b9350610bb1818560208601610fd0565b610bba81611153565b840191505092915050565b6000610bd2603483610f1e565b9150610bdd82611164565b604082019050919050565b6000610bf5602783610f1e565b9150610c00826111b3565b604082019050919050565b6000610c18600c83610f1e565b9150610c2382611202565b602082019050919050565b6000610c3b600083610f02565b9150610c468261122b565b600082019050919050565b6000606083016000830151610c696000860182610ac0565b506020830151610c7c6020860182610ca1565b5060408301518482036040860152610c948282610b53565b9150508091505092915050565b610caa81610fb7565b82525050565b610cb981610fb7565b82525050565b6000610cca82610c2e565b9150819050919050565b60006020820190508181036000830152610cee8184610ade565b905092915050565b60006020820190508181036000830152610d108184610b8c565b905092915050565b60006040820190508181036000830152610d328185610b8c565b9050610d416020830184610acf565b9392505050565b60006060820190508181036000830152610d628186610b8c565b9050610d716020830185610acf565b8181036040830152610d838184610b8c565b9050949350505050565b60006040820190508181036000830152610da78185610b8c565b9050610db66020830184610cb0565b9392505050565b60006020820190508181036000830152610dd681610bc5565b9050919050565b60006020820190508181036000830152610df681610be8565b9050919050565b60006020820190508181036000830152610e1681610c0b565b9050919050565b6000602082019050610e326000830184610cb0565b92915050565b6000604082019050610e4d6000830185610cb0565b8181036020830152610e5f8184610b8c565b90509392505050565b6000610e72610e83565b9050610e7e8282611035565b919050565b6000604051905090565b600067ffffffffffffffff821115610ea857610ea7611124565b5b610eb182611153565b9050602081019050919050565b6000819050602082019050919050565b600081519050919050565b600081519050919050565b6000602082019050919050565b600082825260208201905092915050565b600081905092915050565b600082825260208201905092915050565b600082825260208201905092915050565b6000610f3a82610fb7565b9150610f4583610fb7565b9250827fffffffffffffffffffffffffffffffffffffffffffffffffffffffffffffffff03821115610f7a57610f79611097565b5b828201905092915050565b6000610f9082610f97565b9050919050565b600073ffffffffffffffffffffffffffffffffffffffff82169050919050565b6000819050919050565b82818337600083830152505050565b60005b83811015610fee578082015181840152602081019050610fd3565b83811115610ffd576000848401525b50505050565b6000600282049050600182168061101b57607f821691505b6020821081141561102f5761102e6110f5565b5b50919050565b61103e82611153565b810181811067ffffffffffffffff8211171561105d5761105c611124565b5b80604052505050565b600061107182610fb7565b915061107c83610fb7565b92508261108c5761108b6110c6565b5b828206905092915050565b7f4e487b7100000000000000000000000000000000000000000000000000000000600052601160045260246000fd5b7f4e487b7100000000000000000000000000000000000000000000000000000000600052601260045260246000fd5b7f4e487b7100000000000000000000000000000000000000000000000000000000600052602260045260246000fd5b7f4e487b7100000000000000000000000000000000000000000000000000000000600052604160045260246000fd5b6000601f19601f8301169050919050565b7f547279696e6720746f207769746864726177206d6f7265206d6f6e657920746860008201527f616e2074686520636f6e7472616374206861732e000000000000000000000000602082015250565b7f4661696c656420746f207769746864726177206d6f6e65792066726f6d20636f60008201527f6e74726163742e00000000000000000000000000000000000000000000000000602082015250565b7f57616974203135206d696e730000000000000000000000000000000000000000600082015250565b50565b61123781610f85565b811461124257600080fd5b5056fea26469706673582212209f4d6febf94c14e199c727fd855606721d49b9ac233254c8eb79eb2558e972bf64736f6c634300080400334c6976696e67206c696b652077652772652052656e65676164657320627574206172656e27742077653f",
  "linkReferences": {},
  "deployedLinkReferences": {}
}